{
  "contractName": "Election",
  "abi": [
    {
      "constant": true,
      "inputs": [],
      "name": "candidatesCount",
      "outputs": [
        {
          "name": "",
          "type": "uint256"
        }
      ],
      "payable": false,
      "stateMutability": "view",
      "type": "function",
      "signature": "0x2d35a8a2"
    },
    {
      "constant": true,
      "inputs": [
        {
          "name": "",
          "type": "uint256"
        }
      ],
      "name": "candidates",
      "outputs": [
        {
          "name": "id",
          "type": "uint256"
        },
        {
          "name": "name",
          "type": "string"
        },
        {
          "name": "voteCount",
          "type": "uint256"
        }
      ],
      "payable": false,
      "stateMutability": "view",
      "type": "function",
      "signature": "0x3477ee2e"
    },
    {
      "constant": true,
      "inputs": [
        {
          "name": "",
          "type": "address"
        }
      ],
      "name": "voters",
      "outputs": [
        {
          "name": "",
          "type": "bool"
        }
      ],
      "payable": false,
      "stateMutability": "view",
      "type": "function",
      "signature": "0xa3ec138d"
    },
    {
      "inputs": [],
      "payable": false,
      "stateMutability": "nonpayable",
      "type": "constructor",
      "signature": "constructor"
    },
    {
      "constant": false,
      "inputs": [
        {
          "name": "_candidateId",
          "type": "uint256"
        }
      ],
      "name": "vote",
      "outputs": [],
      "payable": false,
      "stateMutability": "nonpayable",
      "type": "function",
      "signature": "0x0121b93f"
    }
  ],
  "bytecode": "0x608060405234801561001057600080fd5b5061005e6040805190810160405280600b81526020017f43616e64696461746520310000000000000000000000000000000000000000008152506100b0640100000000026401000000009004565b6100ab6040805190810160405280600b81526020017f43616e64696461746520320000000000000000000000000000000000000000008152506100b0640100000000026401000000009004565b6101d1565b60026000815480929190600101919050555060606040519081016040528060025481526020018281526020016000815250600080600254815260200190815260200160002060008201518160000155602082015181600101908051906020019061011b92919061012c565b506040820151816002015590505050565b828054600181600116156101000203166002900490600052602060002090601f016020900481019282601f1061016d57805160ff191683800117855561019b565b8280016001018555821561019b579182015b8281111561019a57825182559160200191906001019061017f565b5b5090506101a891906101ac565b5090565b6101ce91905b808211156101ca5760008160009055506001016101b2565b5090565b90565b610401806101e06000396000f3fe608060405260043610610062576000357c0100000000000000000000000000000000000000000000000000000000900463ffffffff1680630121b93f146100675780632d35a8a2146100a25780633477ee2e146100cd578063a3ec138d1461018f575b600080fd5b34801561007357600080fd5b506100a06004803603602081101561008a57600080fd5b81019080803590602001909291905050506101f8565b005b3480156100ae57600080fd5b506100b76102ed565b6040518082815260200191505060405180910390f35b3480156100d957600080fd5b50610106600480360360208110156100f057600080fd5b81019080803590602001909291905050506102f3565b6040518084815260200180602001838152602001828103825284818151815260200191508051906020019080838360005b83811015610152578082015181840152602081019050610137565b50505050905090810190601f16801561017f5780820380516001836020036101000a031916815260200191505b5094505050505060405180910390f35b34801561019b57600080fd5b506101de600480360360208110156101b257600080fd5b81019080803573ffffffffffffffffffffffffffffffffffffffff1690602001909291905050506103b5565b604051808215151515815260200191505060405180910390f35b600160003373ffffffffffffffffffffffffffffffffffffffff1673ffffffffffffffffffffffffffffffffffffffff16815260200190815260200160002060009054906101000a900460ff1615151561025157600080fd5b60008111801561026357506002548111155b151561026e57600080fd5b60018060003373ffffffffffffffffffffffffffffffffffffffff1673ffffffffffffffffffffffffffffffffffffffff16815260200190815260200160002060006101000a81548160ff0219169083151502179055506000808281526020019081526020016000206002016000815480929190600101919050555050565b60025481565b6000602052806000526040600020600091509050806000015490806001018054600181600116156101000203166002900480601f0160208091040260200160405190810160405280929190818152602001828054600181600116156101000203166002900480156103a55780601f1061037a576101008083540402835291602001916103a5565b820191906000526020600020905b81548152906001019060200180831161038857829003601f168201915b5050505050908060020154905083565b60016020528060005260406000206000915054906101000a900460ff168156fea165627a7a723058201a6e67db4e486e2e0c3b6081e23e4e2174e9108384b16b8af4a9f563348627510029",
  "source": "pragma solidity ^ 0.5 .0;\r\n\r\ncontract Election {\r\n  // Model a candidate\r\n  struct Candidate {\r\n    uint id;\r\n    string name;\r\n    uint voteCount;\r\n  }\r\n  // Store candidates\r\n  // Fetch candidates\r\n  // 将候选者以key->value (key为id, value为结构类型)形式映射。\r\n  // 并最终以public公开所有candidates\r\n\r\n  mapping(uint => Candidate) public candidates;\r\n\r\n  // store accounts that hasve voted\r\n  mapping(address => bool) public voters;\r\n\r\n\r\n  // Store candidates count.uint Default to 0;\r\n  // 因为不能通过mapping知道所有的数据大小\r\n  // 随意输入一个id为99的也会返回一个空的candidate function.\r\n  // 这个function也会返回默认的空的Candidate strucure\r\n  uint public candidatesCount;\r\n\r\n  constructor() public {\r\n    // candidate = \"Candidate 1\";\r\n    addCandidate(\"Candidate 1\");\r\n    addCandidate(\"Candidate 2\");\r\n  }\r\n\r\n  // 每个候选人加入时id为当前的候选人的总数\r\n  // 并向candidates添加候选人.\r\n  // 默认的初始投票数为0\r\n  function addCandidate(string memory _name) private {\r\n    candidatesCount++;\r\n    candidates[candidatesCount] = Candidate(candidatesCount, _name, 0);\r\n  }\r\n\r\n  function vote(uint _candidateId) public {\r\n    // require that voter haven't not voted before\r\n    require(!voters[msg.sender]);\r\n\r\n    // require a valid candidate\r\n    require(_candidateId > 0 && _candidateId <= candidatesCount);\r\n    // record that voter has voted;\r\n    voters[msg.sender] = true;\r\n    // update the vote count\r\n    candidates[_candidateId].voteCount ++;\r\n  }\r\n}",
  "sourcePath": "I:/self/ETH/truffle-demo/contracts/Election.sol",
  "compiler": {
    "name": "solc",
    "version": "0.5.0+commit.1d4f565a.Emscripten.clang"
  },
  "schemaVersion": "3.0.0",
  "updatedAt": "2019-01-03T09:04:00.856Z",
  "devdoc": {
    "methods": {}
  },
  "userdoc": {
    "methods": {}
  }
}